:400000000020002011000000310500003105000010B501F091FF00F093FAC04670B51A4C12232360182001F0FFFEBC229201174B1A60174B174A1A60FE210902164A11604C
:40004000164A1A60E0210901154A1160154A1A600025154B1D604222144B1A60023A144B1A600132134B1A6013490B2001F024FE0B2001F001FE114B1D60002001F064FF91
:400080001123236070BDC04630001040080301400000014042FF00800003014040FF00800403014041FF008028000340180101400C01014004010140DD1F00000C020740D3
:4000C00010B572B608220F4B1A600F4A0F4B1A6001220F4B1A6004320E4B1A6024320E4B1A600E4A0E4B1A60B3220E4B1A600E4A0E4B1A6004220E4B1A60FFF78FFF00F054
:4001000003FA10BD00010240EEEE000000030240000004401800044000010440060C03000801044000030440A46DC300080304401804044010B5064C2378002B07D1054B7B
:40014000002B02D0044800E000BF0123237010BD18010020000000008C2B0000084B10B5002B03D00749084800E000BF07480368002B00D110BD064B002BFBD09847F9E745
:40018000000000001C0100208C2B0000900000200000000010B562B601F088FFC94A6421642001F0F5FF00F023FA00F065FC00F09BFD02F041FAC44802F0EAF900F056FD0E
:4001C0000028F8D100F08EFB00F036FA002000F06DFB00284AD1ADE0002001F0DBFC012002F096F9002002F09FF9012002F0A8F9002002F0B1F9022001F096FD012001F0D1
:40020000C9FC012002F084F9002002F08DF9002002F096F9012002F09FF9022001F084FD002001F0B7FC002002F072F9012002F07BF9002002F084F9012002F08DF90220DF
:4002400001F072FD012001F0A5FC002002F060F9012002F069F9012002F072F9002002F07BF9022001F060FD013400E00124C823DB009C42B0DD9620400002F089F9FA2424
:40028000A400200001F050FD8F4802F081F9200001F04AFD012448E0002001F07BFC002002F036F9012002F03FF9012002F048F9002002F051F9022001F036FD012001F038
:4002C00069FC002002F024F9012002F02DF9002002F036F9012002F03FF9022001F024FD002001F057FC012002F012F9002002F01BF9002002F024F9012002F02DF902203F
:4003000001F012FD012001F045FC012002F000F9002002F009F9012002F012F9002002F01BF9022001F000FD0134C823DB009C42B2DDC4E0012000F0B9FA00284AD1ACE057
:40034000002001F027FC002002F0E2F8012002F0EBF8012002F0F4F8002002F0FDF8022001F0E2FC012001F015FC002002F0D0F8012002F0D9F8002002F0E2F8012002F090
:40038000EBF8022001F0D0FC002001F003FC012002F0BEF8002002F0C7F8002002F0D0F8012002F0D9F8022001F0BEFC012001F0F1FB012002F0ACF8002002F0B5F80120B1
:4003C00002F0BEF8002002F0C7F8022001F0ACFC013400E00124C823DB009C42B0DD3B4802F0D6F8FA24A400200001F09DFC364802F0CEF8200001F097FC012448E0002068
:4004000001F0C8FB012002F083F8002002F08CF8012002F095F8002002F09EF8022001F083FC012001F0B6FB012002F071F8002002F07AF8002002F083F8012002F08CF823
:40044000022001F071FC002001F0A4FB002002F05FF8012002F068F8002002F071F8012002F07AF8022001F05FFC012001F092FB002002F04DF8012002F056F8012002F098
:400480005FF8002002F068F8022001F04DFC0134C823DB009C42B2DD11E0012001F07AFB002002F035F8002002F03EF8002002F047F8002002F050F8034802F069F800F077
:4004C00013FC78E688010020EE020000E20400000B4B1B68002803D080221206134301E05B005B08064A1360064B1B68002802D02022134301E020229343024A13607047F5
:4005000080033A402800034010B51022054B1A600D3A054B1A601D32044B1A600120FFF7D7FF10BDC0020C4030003040000E3F4010B502F0EDFA03680C2B00D1FEE7FEE799
:4005400070B50F4E0F4D13E029686B68AC68002202E001C901C30432A242FAD1E868002202E0002102C304328242FAD11035013E002EE9D102F0D2FAFFF70CFEFEE7C046A7
:4005800001000000A82C000010B500230AE0032B03D89A000849505800E008489900084A88500133232BF2D9FFF78AFD80229205044B1A6010BDC046000000003105000030
:4005C0000000002008ED00E010B5084B1B78002B06D100F031F900F07BF90122034B1A7000F04CF800F0E6FD10BDC0463401002070B5FFF7E9FF051E02D100F013FD0500B3
:40060000002D02D100F070FB0500002D02D00BE0013C00E0074C00F029FB002801D0002CF6D1002C00D1102500F05EFA00F024FA280070BD404B4C0070B50E4E0025002482
:4006400013E0630904339B000B4A9B581F222240D340DB0707D5300000F062F805003100200000F0BDF820360134012CE9D9280070BDC046942B00008801002070B5002393
:4006800009E012491A1D92008818002444600120404250500133002BF3D00D4C022310E06668A27E094B5B1900211976012A06D12069002803D0F179228B02F05EFA203451
:4006C0002B005D1E002BEBD170BDC04688010020942B000010B582B0040008001300628869460A80628A02F013F96B461B8863806B469B7823716B46DB7863716B461B7903
:40070000A37102B010BDC04630B50B884A889C1A0025CD800079844200DDCC8030BDC046F0B5574680B482B0824684684568837E0193C76900260023009316E0698A208818
:400740003A0002F012F9320039002800FFF7C2FF0C37019A2100280000F0D4F9009021002800FFF7D1FF0A34013653461B8B9E42E4D3009802B004BC9246F0BDF0B50A8B61
:400780008D684F680B69012125E00C00044003D17E88BA79B21802E07A88BE79921BEE88B24201D3002200E00A00A24202D01E78013E1E70A24202D01C78002C07D1884387
:4007C0001043002A01D1FA7900E001221A7049000A3501336246541EA446002AD5D1F0BD70B504008A7E134B1B181D7E012A04D12800FFF7C3FF050002E0002001F05AFAE4
:400800000C4B1B191D7663091F2214401E3AA240002D07D104339B000649CB1859689143596006E004339B000249CB1859680A435A6070BD8801002070B5184D6422002153
:40084000280002F09AF9164B2B8090231B016B80144BAB8008236B8303225933EA54603B2B77114C28001E3021004431253202F07BF92100043402230CE0A268238B04E00A
:400880000B78537201310A320300581E002BF7D120342B005D1E002BEFD170BD88010020FCA4FFFFB80B0000902B000001280BD81F23034001229A404009031D9B00034862
:4008C000C3185868104000E000207047880100200023024AD380024A13607047880100205801002070B5002500263D4B1B68032B06D101F0BAFE01223A4BDA8001F0B9FE80
:40090000384BDC88E4B2062C23D8A300364AD3589F460122324B1A6001261AE00022304B1A60012615E0FFF763FE00222C4B1A60012501260DE00222294B1A60012608E0A7
:400940000022274B1A60012603E00322244B1A600026002E0FD001F088FE224BDB88DBB29C4205D11F4AD188204B0B439BB2D38001F07FFE00261A4B1B68012BB5D0022B21
:400980002BD1184A5833D35CDBB25B21525CD1B2012B22D85A0116488218128B91421CD2104A108980B25C24125B92B2904214D05B010F4AD3189C688A0052185300E4181B
:4009C00001F053FE074B1A8992B25C215A52228892B202315A5201F04CFE280070BDC0465801002088010020342C00000080FFFF942B0000FF231940062902D083180021F9
:400A000019715300195AC31859808218002313727047C04670B506000D00012305E0220029003000FFF7E6FF23005C1E002BF6D170BDC04610B54001054B1B188A005118DE
:400A400048009A6894466044997EFFF7E3FF10BD942B000070B505004301064AD3181B8B04E021002800FFF7E5FF23005C1E002BF7D170BD942B000010B5022303E0200074
:400A8000FFF7E8FF23005C1E002BF8D110BDC046F8B5050043010D4AD3185E681B8B10E06A010A4B9B189F68A20012195000D96963001B199A008A18718A385A01F049FFEF
:400AC00023005C1E002BEBD1F8BDC046942B000010B5022303E02000FFF7DAFF23005C1E002BF8D110BDC04610B5FFF7F1FF10BD9840504380235B009A1A51434018000A4D
:400B00007047C046F0B5474680B482B007000E00019201233EE06300985BF3185988884205D3431A321900251572012201E00B1A0022002A11D17D79AB420ED933191B7A3C
:400B40003A7A934205D3220001993000FFF752FF1FE03219013313721BE03D79AB4204D97D79AB4215D8002A13D1FF23019A1340062B0ED00902331998461B791943082316
:400B80000122FFF7B5FF020A6300F3185A804346187123005C1E002BBDD1002002B004BC9046F0BD70B504000D009F2808D91B4B994205D91A49280001F0A4FF002921D061
:400BC0009F2C09D9FF235B009D4205D91549280001F098FF002917D09F2C07D97E2D05D97F21280001F08EFF00290FD09F2C0FD93E2D0FD93F21280001F084FF00290BD068
:400C000000200AE0042008E0032006E0022004E0002002E0002000E0012070BDFE030000FF030000FF01000010B54B1EDBB2032B01D8102300E00023002911D0002B11D02E
:400C4000642253430100180001F0D6FE002301E0013340000928FBD90A2804D9013B02E0002300E00023D8B210BDC046024BDB68802018407047C0468801002010B50E4B41
:400C8000DB68DB030DD401280DD8430904339B00094A9B581F220240D340DB0705D4012404E0112402E0012400E00024002C01D100F026FE200010BD8801002010B5084B66
:400CC000DB68DB0307D4074B1B78012B05D100F077FD002003E0112001E00120404210BD880100205C01002010B50F4BDB681B0618D400240120404211E02000FFF7BEFF08
:400D000000280BD1002C03D10122084B5A7002E00022064B5A70FFF7D1FF04E00134012CEBD900E0112010BD880100205C010020F0B5474680B482B0012809D0022803D0E5
:400D400000270623984606E005270023984602E0002700239846154C002521E001F085FC01902268136821698B43136060680268A67E0721B1408A434146B1400A4302606B
:400D8000227E390091400B4322681360A268136861698B431360019801F06BFC1C340135012DDBD902B004BC9046F0BDFC2B000010B51B4A93780133DBB293709078C0B2C6
:400DC000FFF75CFF041E09D1154B9B78012B02D10022134B5A70FFF771FF1EE0104B9B78012B11D10F4B1A8901321A81DA6880218A43DA60DA681202120ADA60DA6804065D
:400E00001443DC60002408E0064AD3681B021B0AD360D16803060B43D360002CC9D110BD5C01002088010020074A084B1A6001380002074B1860054B1B68002BFBDB054A51
:400E4000024B1A607047C04640000040000001400003014040FF00804001024B1818436898897047942B00000203121A01238B40013B9A4205D90202101A834203D3052026
:400E800002E0062000E00020C0B2704770B50E00FFF7E2FF05003188002200F0ABFB01002800FFF77FFE041E04D168003188FFF7DBFF040021002800FFF7B6FE0001C0B293
:400EC0002043B07370BDC046F0B5474680B488B005004301494AD3185C689F68484B197F484801F089FD8046FA20800043465843454901F081FDFA231B01984200D8180053
:400F0000424B9C466044FA21890001F075FD0600C30700D5013601AB4246DA82FA2292001A823B4A5A82228A9A822200123204920C2323803749404601F05EFDA081002354
:400F4000A3735521280000F0EBFD002100239C46002207E07B7A994202D239888C4619000A3701326B012548C318DB7E9A42F1D3637A01AFBB76F976A37ADB00264AD318C5
:400F80005B6802930C239846A04443460393FA239B0060465843214901F02EFD3883380001F048FC019001E05B00A381A3899E42FAD81B4B984201D8002600E00626552192
:400FC000280000F0ADFDA37ADB00134AD3185B6801A84360637A83764346836001F05AFC208021002800FFF751FF5521280000F097FD304308B004BC9046F0BD942B0000D9
:4010000088010020C05D000070170000E7030000E5070000DC050000502C0000FF0F0000880D010070B50024002504E02000FFF74BFF05430134012CF8D9280070BDC04604
:4010400010B5002407E06301044AD31859682000FFF71CFF0134012CF5D910BD942B0000F0B55F4656464D464446F0B483B001902B4E3468F0231B011C400094294F3B689B
:40108000042292461A409146274C2568E0235B001D40AB4601F0E9FA3368244A90461340336001F0E6FA01F0E0FA3B68524693433B6001F0DEFA01F0D8FA23681C4D2B4089
:4010C000C02252001343236001F0D3FA6B46988800F016FF01F0C9FA23681D405A461543256001F0C6FA01F0C0FA3B68524693434A4613433B6001F0BCFA01F0B6FA336865
:4011000042461A401400009B1C43346001F0B1FA03B03CBC90469946A246AB46F0BDC046000402400004044008040440FFF0FFFF3FFEFFFF70B505000E00140001F095FAD1
:401140002B685C4034405C402C6001F092FA70BD10B5074A136801218B4313600022F02109010448FFF7E6FF00F0B8FB10BDC046A8020C400004024010B504000C4B1B783D
:40118000834214D0012B01D1FFF7E2FF012C05D100F062F90122064B1A7008E0022C06D0042C04D0032C02D00022014B1A7010BD5C01002010B5FFF743FF0020FFF7B8FD6A
:4011C00000216123044AD1540020FFF7D5FF0120FFF7D2FF002010BD8801002001390843014B18607047C04600020C4010B50F4B1B68702293431C000D4B197F0D4801F0BF
:40120000FBFB0D4B984204D820232343074A13600BE0084B984204D830232343034A136003E040232343014A136010BD940000208801002000366E01001BB700034A044B29
:401240001A60C5225204034B1A60704700008F01C0010C40C4010C40F0B5474680B482B005004301214AD3185A689C68138801279F40013F0A2902D908000A3800E0002053
:401280000A23984688444346642B01D9642398467843642101F0B0FB060040467843642101F0AAFB020000270023019313E04B00185B864208D80B00824201D207E00123DC
:4012C000591E002BF3D104E00623019301E0062301930A3401376B010449CB181B8B9F42EDD3019802B004BC9046F0BD942B0000F8B54F464646C0B4070046688468B57A91
:40130000A84601237F200022914608E0B3185B7A994500D29946984200D9180013005A1E002BF3D100210CE0A3185B7A984200D91800130000E001235A1E002BF4D10A3482
:4013400001313B8B9942F6D34346002B13D0132813D80D49EA008A1850686B1EDB00CB18596801F049FB4F4647437E2F07D8013DB572012004E0002002E0002000E0002006
:401380000CBC90469946F8BD502C0000F0B55F4656464D46E0B482B007008A4643689B461B8801229A401300013B019301234AE05B465B195B7A9946BB686A00D05A4C46FA
:4013C000002208E05919497A8C4202D96800C05A0C000A330132F97E8A42F3D364235843019901F009FB64306043514601F004FB814500D381465B465B194A465A72BC689A
:4014000000261CE06B00185B64235843019901F0F3FA643063195B7A584353464A465343984203D2631900225A7206E0C01A3230642101F0E1FA631958720A340136FB7E13
:401440009E42DFD32B005D1E002BB1D102B01CBC91469A46A346F0BDF8B5334B61229A5C6021585C824206D0FFF762FC2E4B6022995C013299540120FFF7F2FDC0221203DC
:401480002A4B1A602A4D2B682A4E33432B600024294B1C60294B1C601022294B1A60294B1C60294B1C60294B1C60294B1C60294F3C60294B1C60C022D200F0210901274894
:4014C000FFF738FE002204212548FFF733FE254A1368802149010B4313600122224B1A602B6833432B6080235B04204A13602049204A1160204A14603B60FFF79FFE0A4B2D
:40150000187FFFF791FCFFF771FE1C4B1B681C4A13431C4A13600F221B4B1A601B4B1C60053A1B4B1A60F8BD8801002004020C40A8020C4001000010F4000C40B4020C40A2
:40154000C0020C4020030C4084010C4088020C4080020C4084020C4080010C40000402400004044094020C40A0020C40A4020C404112000088010C4090020C4094000020D0
:401580000010008000000C4000030C40F0010C4010030C40F8B50700837ADB000F4A9D5801F063F80E4B1A680E4C22400E490E78BF19797A0A432A431A6001F05AF801F097
:4015C00054F80A490B682340094A12689619727A13432B430B6001F04CF8F8BD502C0000C0010C4080FF3FFC802C0000C4010C40EC01002010B503001400012088401029EA
:4016000000D11D38002B02D0190001F0F5F9053C012C00D84008002800D1013010BDC04610B50C4B1B785B010B4AD3185B6899899B7B18045A1F012A02D880229204104399
:40164000053BDBB2012B02D8490800D10131FFF7C5FD10BD5E010020942B000010B50300808919889A7BFFF7C5FF0004000C014B186010BD14030C4010B50D2000F006FB58
:4016800001222C4B1A6000232B490B602B482C4908602C490B6006202B4908602B490A602B490A60832149002A4A11602A4A136003222A4B1A60F02300E0013B254A126841
:4016C000520701D4002BF8D1002B02D10822234B1A60832252001F4B1A600D2000F0E0FA0D2000F0C9FA0023184A1360144A1360144A1360144A13605021154A11604F39D2
:401700000D4A11600B4A1360154A1368802149040B4313600222104B1A60F02300E0013B104A1268520701D0002BF8D10E4A0B4B1A6010BD80010C408C010C4001010100D8
:40174000B0020C40B4020C4088020C4080020C40F0010C40F0000C40F8000C4040030C4000020C4000000C400103000010B5054AD36805490B43D3600A2000F0C1FBFFF7F1
:401780007BFF10BD880100208000010070B50400857E067E00F069FF23681B680F22B24093431A000423B3401343666832680721A9408A4332602268136000F05AFF70BDD4
:4017C000F8B51D4B1B785B011C4AD3185F681C4B61229A5C6021585C824206D0FFF7A8FA174B6022995C01329954164C00232370114E3378114D5B01EB1899682378DBB285
:401800009A00D3185A008A180F4B1A603800FFF7C1FE33785B0158592278D2B2D3009A1A9300C018094B1860FFF7B0FF084800F0E5F9FFF79BFFF8BD5E010020942B00008C
:40184000880100205F010020EC010020F00100209D27000010B54001054BC058CB00591A8B00C018034B1860FFF790FF10BDC046942B0000F0010020F8B50400067E857E28
:4018800000F0F3FE636819680723AB40994327683B680F22B24093433B6061220E4FBA5C002A05D10623AB4019436368196008E0022A06D10332B24013436268116022686D
:4018C0001360A1680B68647E0122A24093430B6000F0CFFEF8BDC0468801002010B5064B1B78012B06D1054B1868FFF7C5FF0022014B1A7010BDC04660010020F00100201D
:4019000070B5104E4301F3185D68C0B20E4C20700120FFF731FCFFF7E1FF23785B019A590A4B1A600A4BDA687F218A43DA602178DA680A43DA602800FFF790FEFFF770FE31
:4019400070BDC046942B00005E010020F00100208801002070B54301134AD3185D68C9B2124C217099682378DBB29A00D3185A008A180F4B1A60FFF7C3FF2800FFF70AFE00
:401980002378DBB20B49DA00D31A98000B689C4660440860FFF7FAFE0122074B1A70074800F02CF970BDC046942B00005F010020EC010020F00100206001002071270000F1
:4019C000F0B5574680B484B001904301514AD3185B689A461D000935012303E0002003AB985413005A1E002BF8D153461A8801239340013B59430800642100F0FDFF06001B
:401A0000002300936EE0019B5B01424AD3189F68009A9300944663445A00BF18012304E04023AB54B9184B7213005A1E002BF7D1402400990198FFF78DFF0120FFF710FB9D
:401A4000FFF794FE344B00E0013B344AD26812060DD5002BF8D101330AE05300DB5B9E4203D9A9180B78A3430B70130000E001235A1E002BF1D1640801330FE0A9180B7846
:401A80002343DBB20B70B8184372002C05D10B78002B02D101330B70437213005A1E002BECD1002CC5D1013307E003AB9B181878A95C884200D2197013005A1E002BF4D166
:401AC00000990198FFF746FFFFF750FE124B00E0013B124AD268120601D5002BF8D1009B01330093019B5B010A4AD3181B8B009A9A4288D3012305E003AB995C53469B183C
:401B0000597213005A1E002BF6D104B004BC9246F0BDC046942B000000A60E008801002070B504000D004601174BF618174BDB68DB0324D4736804229A7229002000FFF78E
:401B40003FFF3000FFF7D4FB0028F6D129003000FFF71CFC2000FFF7D3FEFFF731FE0C4B00E0013B094AD268120601D5002BF8D1002B06D029002000FFF76EFB02E0112032
:401B800000E0102070BDC046942B00008801002000366E0104490A68D2B210239A430001184010430860704700030440014B58677047C0460000002010B5040000F055FD7D
:401BC000044A1168044B0B40A4031C43146000F050FD10BD0CE400E0FF3FFFFF80229201014B1A607047C04600E100E080229201014B1A607047C04680E100E010B50400B9
:401C0000FFF7F4FF2000FFF7D1FF0320FFF7D4FFFFF7E4FF10BDC0460C4B1B689B001C22134018330A4A1268920803210A40D34008490868084A02400A60084A9446634471
:401C40001B78DBB2064A13607047C046080F03402800034000000740FFFFFFBFCDF1FF0F0C0F0340034B18688023DB05184000D001207047000007401F2318401E3B834084
:401C8000014A13607047C04600E100E01F2318401E3B8340014A13607047C04680E100E01F2318401E3B8340014A13607047C04680E200E001BE704770B504000D0013281C
:401CC00002D90020FFF7F6FF1034A40080239B059C4664442068256070BDC04670B504000E00032902D90020FFF7E4FF132C02D90020FFF7DFFF03252540ED00063500F01F
:401D0000B4FCA408A400074B9C46644421680323AB4099430B003100A9401943216000F0A8FC70BD00E400E010B5040006E0084B586800F091FC074B9C46644480231B02EF
:401D40009C42F4D8024B9868604300F085FC10BD980000200080FFFF70B582B000F0E2F800284DD000F081FC0500264B1A6892001C231A401832244B1B689B0803210B4011
:401D8000DA400021214B1960214C2168214B0B4021494A438021C9018C466244D20B013A5205520D1343A0225203134323601B4B1B680193302000F013FD194A136880211C
:401DC000C9050B4313602668164B1E40002407E00120FFF7A9FF1034A30533430C4A1360EE2CF5D90120FFF79FFFFF239B051E43074B1E60019A094B1A60280000F039FCCC
:401E000002B070BD080F0340280003400C0F03400800074000F800C040420F003000104000000740FFFF3FC0F0B583B0040018280BD01C2809D0202807D0242805D02828A0
:401E400003D02C2801D0302849D100F00EFC0190FFF708FF002803D0FFF7DEFE012600E00026214A136807218B4313601F4BE3181B78DBB21E4A13601E4A13688B431360A3
:401E80001D4803687F22934319001C4BE3181B7813400B430360322000F0DEFB182C16D9114F3B680725AB431A0023001C3B9B082B4013433B60322000F0CEFB3A68AA4331
:401EC0002300183B9B082C001C4014433C60012E01D1FFF741FF019800F0CBFB02E00020FFF7E8FE03B0F0BD080F0340CDF1FF0F0C0F0340100F0340180F0340B4F1FF0F87
:401F000010B5034B1B7B584300F0A6FB10BDC04698000020024B1868800F80077047C0460C020740034B1B68002B01DA012000E00020704700000740014A024B1A6070478D
:401F40006588EDAC3800034010B50400FFF7E2FFA0421AD0144A136803218B431360134B1B689B0F01D17C2001E086204000FFF7C7FF00F07AFB0D4A13689B009B08A40F12
:401F8000A4071C43146000F074FB074B1B6803229343064A1268920F01D1023200E001221343014A136010BD140207400C02074010B5040000F059FB054B1C4005490B68F3
:401FC000054A134023430B600B6800F052FB10BD0404040010020740FBFBFBFF10B5244B1B685B0715D5234B1B685B070ED5224B5969042001401F4C22688A4322605A69C8
:4020000082435A619B68002B00D098470420FFF7CFFF174B1B685B0518D5164B1B685B0510D5154B59698022D2001140114802688A4302605969114A0A405A61DB68002B97
:4020400000D098478020C000FFF7B2FF084B1B685B030CD5074B1B685B0304D5064B1B69002B00D098478020C002FFF7A1FF10BD10020740AC00002064010020FFFBFFFF73
:4020800010B50820FFF7F8FD10BDC04610B500F01DF810BD10B5044A1368802109060B431360FFF7EDFF10BD0000094010B5064B1B78002B04D1FFF7E9FF0122024B1A7066
:4020C000FFF7E8FF10BDC0467C01002010B500241A4B1C601A4A1B4B1A601B4B1B4A13601B4A14601B491C4A11601C4A13601C4B1C600820FFF7CAFD03210820FFF7EEFD65
:4021000018490820FFF7D8FD174B1C60174B1C605222FF32164B1A60164B1C60164B1C60164B1C60503AFF3A154B1A70154B1C70154B1C80154B1C8010BDC04600000940CB
:4021400000080040600009400701008000030940040309401000FE00100309400002094004020940C1210000C80E0940880E0940480F0940080F0940C80F0940880F094066
:40218000F8010020FC010020F6010020F401002070B506000D00141E0BD00820FFF776FD044B1C60044B1E80044B1D800820FFF763FD70BD0002002004020020FA01002035
:4021C00070B5B44B1B68002B00D09847B24B1C88B24B1D68B24B1E680223FF331D4239D0B04A13685B005B081360AF4A137820218B431370117810230B43DBB21370AB4B2D
:402200001B68DB060CD4A44B1A88A94B1B889A420CD0A54A117808230B43DBB2137005E0A14A117802230B43DBB21370A14A1168A14B0B4013600023A04A13609B4A1360B7
:4022400002229F4B1A70974A1368802109060B4313601BE1F30602D500229A4B1A600A23334200D1A3E0984B1B685B0769D5974B1A68934B1B78012B04D0002B22D0022B91
:4022800016D057E0924B1B88002B0DD00121914B1960914B1B681B19D2B21A7001348C4A1388013B138048E002228A4B1A6044E00121884B1960D2B2854B1A800022804BE4
:4022C0001A703AE0824B1B881B021A43834B1B889A422BD201217F4B1960814B1B889A4202D29B1A9BB200E0002379490B80072B03D80121724B197014E0082B09D16D4904
:402300000B68A020000203430B6000216B4B196008E068490B688020800103430B600821664B1960624B1A80140006E00222694B1A6002E00020FFF7BDFC0422694B1A609E
:4023400035E05C4B1B689B0431D5B3070DD5664B1B681F211940574A1068574B03401360012014E00821012011E0594B1988083989B219800829F5D8002008E0564B1B68CB
:402380001B19524A1268D2B21A70013401390029F4D1002808D1474A1368802109020B4313600022454B1A600C224E4B1A60B3074BD5EB0615D50023404A13603B4A1360B4
:4023C0003B4B1B889C4201D1022300E00A232B40354A11780B4320218B4313700222384B1A706B062FD5304A117820230B43DBB213702F4B1B881C003C4A1268D20612D53D
:40240000364A1288D31A324A1380394B1A68802149020A431A601968364A0A401A601022224B1A6002E00422244B1A600122324B1A603249194B1960314908681023034329
:402440000B60244B1A60154B1D60154B1B685B071CD51F4B1B88002B0CD01F4B1B681B191B78DBB2274A13600134194A1388013B138002E0FF22234B1A60234B1B681F229D
:402480001340082BE5D10F3A204B1A60024B1C8070BDC04680010020F6010020400F0940000E094000000940FC010020880F0940F401002060000940FF5FFFFFC80F09406F
:4024C000F8010020880E0940CC0F094040030940840100206C0009400002002004020020FA010020C00F0940080309406400094004020940FFFFFEFF800E0940FF0F00002F
:40250000480F09404002094008020940800F094004490A687F231A40C301D8B2104308607047C0460003044004490A68D2B220239A434001184010430860704700030440C8
:4025400004490A68D2B220239A43400118401043086070470001044004490A68D2B208239A43C0001840104308607047000104400004000C014B18607047C046880106402E
:402580000004000C014B18607047C046940106400004000C014B18607047C0468C01064070B504000D0000F060F8AC40024B1C6000F05FF870BDC0460800064010B500F09B
:4025C00054F8064A116804230B43136000F051F818210420FFF7E4FF10BDC04600000640014B18607047C046B801064010B50D4C8023DB042360236823600020FFF7B8FFD8
:40260000236823600C22084B1A600120FFF7E8FF3122064B1A600648FFF7B2FF0548FFF7B7FF10BD80010640A4010640A8010640102700001C25000010B5064B1B78002BCD
:4026400004D1FFF7D3FF0122024B1A70FFF7B6FF10BDC046860100200230800803D001300238FCD1C046C0467047EFF3108072B6704780F3108870470E4B1B785B010E4A63
:40268000D3185B680D4A11680A04120C188801238340013B9A4206D2094B1A68094B1B785B00D15205E0064A1168064A127852008B5270475E010020942B0000D0000C40F6
:4026C000EC010020802C000070B5224B1A78224952018A1850681B785B01CB181A7E013A1E4B1B78DBB29A421CD91C4C23780133DBB22370174D2B785B01CB1899682378AD
:40270000DBB29A00D3185A008A18154B1A60FEF741FF2878C0B22178C9B2FFF79BF8FEF7ABFF16E000220D4B1A700E4AD1680E4B0B40D3600D4B1B78012B02D1FEF738FBBA
:4027400007E0084BDA6880218A43DA601A8901321A8170BD5E010020942B00005F010020EC01002088010020FFFFFEFF5D01002010B583225200064B1A60FFF77DFF054B61
:402780001A8901321A81D968034A0A40DA6010BDF0000C40880100207FFFFEFF10B50C4B1B785B010B4A9C580B4B1A78D2B2D1008A1A9300E41883225200084B1A60FFF7EB
:4027C0005BFF2000FFF758F8FFF77EFF10BDC0465E010020942B00005F010020F0000C4070B50400FFF741FF0500102C05D8104A136803218B43136016E0202C07D80C49AC
:402800000B6803229343023A13430B600CE0302C07D807490B6803229343013A13430B6002E00020FFF746FA2800FFF722FF70BD30001040F7B5FA278368C58A0193038BFF
:40284000867EBF005E43C37E04007B43F618019B2800198800F0D0F881B2606800F0CCF8618A704300F0C8F80600208A3900704300F0C2F80649684300F0BEF80123002897
:4028800002D040085B00FAE7019A30001380FEBD00E1F50570B50400FA21438A807E1D04ED1A63688900584300F0A6F80100280000F0A2F8A36805001988E08A00F09CF8C8
:4028C00080B26843104900F097F8A38A0A21584300F092F800230D4A216810258A425B410222D31A62325343984203D9013D4008062DF9D14B236421584300F07DF8E46863
:402900002080E8B270BDC046A0860100A761000010B50024A34200D00C880388101C9B009BB29A4200D2181C83B2221C9C4200D2021C93B20A805A08FF2A01D9FF2200E0D2
:40294000D2B28A70CA70DB08FF2B00D9FF230B7110BD8B0813800F2393720023C90851809080D0801081D3727047937A30B594885B00041B9080DBB2002C01DB937202E02B
:402980000133937264420F23957A1D4053889572A34203D9012B03D9013B00E0013353800F2D05D0002D03D053889D00AC4204D90023D0801081D3721DE0D488844201D936
:4029C000D08003E01489844200D21081D07A092802D80130D0720EE01089D488001B80B2834204D989088B4203D9013B00E0013353805388138030BD002243088B4274D30B
:402A000003098B425FD3030A8B4244D3030B8B4228D3030C8B420DD3FF22090212BA030C8B4202D31212090265D0030B8B4219D300E0090AC30B8B4201D3CB03C01A524197
:402A4000830B8B4201D38B03C01A5241430B8B4201D34B03C01A5241030B8B4201D30B03C01A5241C30A8B4201D3CB02C01A5241830A8B4201D38B02C01A5241430A8B426E
:402A800001D34B02C01A5241030A8B4201D30B02C01A5241CDD2C3098B4201D3CB01C01A524183098B4201D38B01C01A524143098B4201D34B01C01A524103098B4201D3A2
:402AC0000B01C01A5241C3088B4201D3CB00C01A524183088B4201D38B00C01A524143088B4201D34B00C01A5241411A00D20146524110467047FFE701B5002000F006F833
:402B000002BDC0460029F7D076E770477047C046014B18687047C046100100200E4B70B500251E000D4CE41AA410A54204D0AB00F35898470135F8E700F0A4F8084B0025E0
:402B40001E00084CE41AA410A54204D0AB00F35898470135F8E770BD902C0000902C0000902C0000982C0000002310B59A4203D0CC5CC4540133F9E710BD0300821893423D
:402B800002D019700133FAE7704700000000000020200000FC2B0000A6010020CE0100200000000054010020012800000100010144010020182C0000BA010020D8010020B3
:402BC00000000000500100200128000001000101380100200C00640028280A031E20040004000000A00000000C00640028280A031E20040004000000A00000000000024037
:402C0000080004400000044004000440000F00000400000008020600000002400800044000000440040004400F000000010000000000000052090000120900001C090000D4
:402C40002609000036090000400900004A090000000000017C92000000000003F824010000004001E093040000004003C027090000008001009F240000008003003E4900E2
:402C800000430000F8B5C046F8BC08BC9E4670475D01000089050000F8B5C046F8BC08BC9E46704735010000B82C00009000002088000000F00000000000000020000004F3
:402CC000010000000000E02EC05D00001800000000366E01040404000000000000000000000000000000000000000000000000000000000000000000812C00000000000032
:402D00000000000000000000000000000000000000000000000000000000000000000000000000000000000000000000000000000000000000000000B000002000000000C3
:402D40000000000000000000000000000000000000000000000000000000000000000000000000000000000000000000000000000000000000000000000000000000000053
:402D80000000000000000000000000000000000000000000000000000000000000000000000000000000000000000000000000000000000000000000000000000000000013
:402DC00000000000000000000000000000000000000000000000000000000000000000000000000000000000000000000000000000000000000000000000000000000000D3
:402E00000000000000000000000000000000000000000000000000000000000000000000000000000000000000000000000000000000000000000000000000000000000092
:0200000490303A
:02000000E13BE2
:0200000490402A
:4000000000000000000000000000000000000000000000000000000000000000000000000000000000000000000000000000000000000000000000000000000000000000C0
:0200000490501A
:0C00000000021B0111AB00011B0FF2E617
:0200000490600A
:0100000001FE
:00000001FF